:020000040800F2
:10000000D08A0020695A0008733900087539000841
:10001000793900087D3900088139000800000000A6
:10002000000000000000000000000000853900080A
:1000300087390008000000001F4D0108815A0008A0
:10004000835A0008835A0008835A0008835A00081C
:10005000835A0008835A0008835A0008835A00080C
:10006000835A0008835A0008835A0008835A0008FC
:10007000835A0008835A0008835A0008835A0008EC
:10008000835A0008835A0008835A0008835A0008DC
:10009000835A0008835A0008835A0008835A0008CC
:1000A000835A0008835A0008835A0008835A0008BC
:1000B000835A0008835A0008835A0008835A0008AC
:1000C000835A0008835A0008835A0008835A00089C
:1000D000835A0008835A0008835A0008835A00088C
:1000E000835A0008835A0008835A0008835A00087C
:1000F000835A0008835A0008835A0008835A00086C
:10010000835A0008835A0008835A0008835A00085B
:10011000835A0008835A0008835A0008835A00084B
:10012000835A0008835A0008835A0008835A00083B
:1001300000F002F800F063F80AA090E8000C824496
:100140008344AAF10107DA4501D100F058F8AFF273
:10015000090EBAE80F0013F0010F18BFFB1A43F0A5
:1001600001031847B8B70100D8B7010010F8013BE8
:100170000A4413F0030408BF10F8014B1D1108BF17
:1001800010F8015B641E05D010F8016B641E01F8C5
:10019000016BF9D1002D15D010F8014B03F00C03C1
:1001A0000C2BA1EB04040ABF10F8013BA4EB831451
:1001B000A4EB032405F1010314F8016B5B1E01F8A5
:1001C000016BF9D5914238BF10F8013BD1D370478C
:1001D0000023002400250026103A28BF78C1FBD850
:1001E000520728BF30C148BF0B607047642914F024
:1001F0001784002070471FB51FBD10B510BD14F047
:1002000045FD1146FFF7F7FF03F09FF914F063FD7A
:1002100003B4FFF7F2FF03BC05F0B4FB01F078BBB9
:1002200000250024FE480078062881F06E83DFE870
:1002300010F0060010009A0010062D07740911F046
:10024000BBF9642011F0A4F90120F549087001F010
:100250005DBB11F0AEFDF3480078F34901EB0010EF
:10026000F0494978405C00F0080000285CD00F207D
:10027000EE490870EB490870084640780F280FDAFD
:1002800008464078401CE8490A5CE6484078401C33
:10029000F0310A54F021E3484078401CE24A1154FE
:1002A000E0484078E249087000BFDF48E04909783B
:1002B000415CF030DE4A12788154D0211038DC4A9B
:1002C00012788154F020D849D94A12788854F02104
:1002D000D5481030D64A12788154D5480178007834
:1002E000401ED34A10700029DFD1F021CD4842785A
:1002F000CD48E03081540820CE4908700F21CE4807
:10030000CE4A127800F812100020CB49CB4A12785E
:1003100001EB42014870C9480078401CC749087089
:100320000220BF4908701DE0BE480078BE4901EBBD
:100330000010BC494978405C00F0020090B10020F8
:10034000BD49BE4A127801F81200BC4A127801EB8E
:1003500042014870B9480078401CB8490870022032
:10036000AF49087073E7AF480078B549097888420B
:1003700005D0AC480078B349097888427DD1A948B6
:100380004078B1490978884205D0A6484078AF49FD
:1003900009788842F2D1A3490978A24A52781144D7
:1003A000AB4A1278881800EBD0714910A0EB4101DC
:1003B00019B90120A749087002E00220A549087078
:1003C0000120A5490870974800789A490870954817
:1003D0004078A2490870084601789648007810F0E5
:1003E0002AF89F480178914800780FF035F90FF00E
:1003F0007EFA9B4801788D4800780FF05EF80FF088
:1004000061FA964801788B4800780FF025F99348F7
:100410000178884800780FF050F804F021FF9148E7
:10042000007800287FD1012011F0F5FF00208E49CF
:1004300008808E49088026208D49087000BF8A48B0
:1004400000883228FBDB8348007870B3814800784D
:10045000012813D1682011F096F900208249088004
:100460008249088026208249087000BF7E480088A3
:100470003228FBDB11F0CAFB1AE050E17548007826
:10048000022815D1672011F07EF9002076490880F6
:100490007649088026207649087000BF7248008897
:1004A0003228FBDB11F089FB02E0FFE711F09CFF33
:1004B00070480068704908607048006870490860BA
:1004C000704800687049086046206A4908608C20BE
:1004D0006A49086046206B490860614801785348C2
:1004E000007810F00AFC3C2014F027F962480068FC
:1004F00060490860624800686049086062480068B6
:100500006049086011F070FF48480078454908705C
:1005100053480078487000204D4908700320404936
:10052000087094E6FFE759484049097800EB01104C
:100530004B490978405C56490978884211DD534897
:100540003A49097800EB011045490978405C514966
:10055000364A127801EB0211414A1278895C401A3E
:100560000BD13F480178314800780FF0D5F911F0F0
:100570003BFF03202A49087069E6B7E02E4A2F4B5B
:100580001B7802EB430251782B4A2C4B1B7812F854
:1005900013000FF07CFE404908702748274909786E
:1005A00010F811003D49087023482449097800EBF0
:1005B000410040783A4908703748007870B33948AC
:1005C0003649097800EB011035490978415C31481A
:1005D000324A127800EB0210314A1278805C0844EB
:1005E0002A49124A127801EB02111D4A1278895CDD
:1005F00088427BDA104A114B1B7802EB4302517898
:100600000D4A0E4B1B7812F813000FF085F90A48BB
:100610000A49097810F81100234947E066E0000014
:10062000080E00200B120020E0750020020E0020B2
:100630005E000020090E0020E07300202100002051
:10064000040E0020050E0020060E0020070E0020DC
:100650000D12002023140020620000200A0E00204A
:10066000030E00201C000020E40B0020E80B0020FB
:10067000E70B0020401400200C0000203014002064
:100680001000002050140020140000200B0E002049
:10069000630000200B1000205D000020650000209A
:1006A000660000200B0F0020600000200870FE484C
:1006B000FE49097800EB41004078FD490870FB488D
:1006C0000478FC480078012801DD601CC4B2FA48B7
:1006D0000178FA4800780EF0F0FEF9480178F94800
:1006E00000780FF017FF11F064FB08E0EF48007886
:1006F000401EC0B2ED49087000287FF43FAF00BF34
:10070000EA480078002865D1E74A517810780FF060
:1007100003F911F069FE0320EB49087097E5EB48F7
:10072000007800287ED1EA4A517810780FF0AFFDAA
:10073000E0490870E6480078E6490870E4484078E7
:10074000E5490870DB480078E8B3D84800780FF036
:1007500097FFE249087008460078D4490978884232
:1007600018D1D4480078012830DDD9480178CE4826
:10077000CE4A127800F81210D5484178CA48CB4AC0
:10078000127800EB42004170C8480078401CC7490D
:1007900008701BE0C448D149097810F81100CD4910
:1007A0000870C148CD49097800EB41004078CA493A
:1007B0000870CA480078401CBC490870C6480178D7
:1007C000C448007800E006E00FF0A6F80FF0F3FD53
:1007D00011F0EFFA3BE3B54800780FF051FFBF4945
:1007E000087008460078B1490978884204DABB48A5
:1007F0000078401CAD490870D7E0AB4AAB4B1B7882
:1008000002EB43025178A84AA84B1B7812F8130058
:100810000FF03DFDA7490870084600780028EBD08E
:10082000A24800E0DAE00078AC490870A2480178FC
:10083000A24800780EF010FFA848007800287DDD5F
:100840009948A649097810F81100A54908709648FA
:10085000A249097800EB41004078A24908709F48FE
:10086000057891489D49097810F811009E49087053
:100870008D489A49097800EB410040789B490870FF
:100880009748007893490870964800789249087014
:1008900051E0681EC5B2844A02EB45025178824A93
:1008A00012F815000FF0F3FC824908700846007832
:1008B000E8B37D4810F815008B4908707A4800EBC2
:1008C000450040788949087089488549097800EBD6
:1008D000011084490978415C8548834A127800EB0D
:1008E0000210824A1278805C814222DD7B480570CA
:1008F0006D487A49097810F81100794908706A48FA
:100900007649097800EB41004078764908706648DE
:100910007249097810F811006E49087062486F49F1
:10092000097800EB410040786B49087003E001E072
:1009300004E002E000BF002DABD100BF66480178A3
:10094000644800780EF0E8FF634801786148007859
:100950000FF09DFC5749087054480078401C5349DB
:1009600008705448007801281ADD4F485B4909781F
:1009700010F811004C494D4A127801F8120008464F
:100980005649097800EB410040784749474A1278B8
:1009900001EB4201487045480078401C434908700B
:1009A0000FF009FD11F005FA08E040480078401EFC
:1009B000C0B23E49087000287FF41FAF00BF3B481B
:1009C000007800286FD1384A517810780EF0A4FFD3
:1009D00011F00AFD03203C49087038E400BF454887
:1009E0000178454800780EF037FE0EF080FF414850
:1009F0000178414800780EF060FD0EF063FF2E484C
:100A000001782E4800780EF027FE2B4801782B48FD
:100A100000780EF052FD2E4A517810780FF037FC16
:100A20002449087008460078E0B33448344909780E
:100A300000EB01101E490978405C2D49304A1278BC
:100A400001EB02111A4A1278895C08442D492A4A9E
:100A5000127801EB0211274A1278895C884277DA12
:100A60001448007801280BDD194800780E4901F878
:100A700014001748407801EB44014870601CC4B270
:100A800020481D49097800EB01101A490978405C9B
:100A90001D490978884246DD1A481749097800EB54
:100AA000011033E054E0D2E1E07300202100002087
:100AB000610000205D0000200A0E0020090E0020C9
:100AC0006600002065000020080E00206200002063
:100AD0000B1200206B0000206C0000205F00002043
:100AE0006700002069000020680000206A000020E4
:100AF0000B100020030E0020020E00200B0F002020
:100B0000600000200B0E002063000020FE490978E1
:100B1000415CFE48FE4A127800EB0210FA4A127855
:100B2000805C081A0FD104F09BFB11F036FCF648EC
:100B30000178F74800780EF0EFFE11F055FC032025
:100B4000F44908700EE40FF036FC11F032F97EE142
:100B5000F148EF49097800EB0110EB490978405C56
:100B6000EE490978884211DDEB48E949097800EB44
:100B70000110E5490978415CE448E54A127800EB48
:100B80000210E14A1278805C081A0FD104F068FB69
:100B900011F003FCDC480178DD4800780EF0BCFE63
:100BA00011F022FC0320DB490870BAE4DA48DC4982
:100BB000097800EB0110DB490978405CD349D84A39
:100BC000127801EB0211D74A1278895C401A00288A
:100BD00075DDD548D249097800EB0110D149097873
:100BE000415CCA48CE4A127800EB0210CD4A127816
:100BF000805C0144C848C64A127800EB0210C24A21
:100C00001278805C81427ADA69E0601EC4B2C74A19
:100C100002EB44025178C54A12F814000FF037FB7A
:100C2000C3490870C14810F81400C2490870BF4891
:100C300000EB44004078C0490870BD480078E8B334
:100C4000B548BC49097800EB0110BB490978405C04
:100C5000AE49B84A127801EB0211B74A1278895CA2
:100C6000401A00283BDDB048B249097800EB01107A
:100C7000B1490978415CA548AE4A127800EB0210F0
:100C8000AD4A1278805C0144A348A14A127800EB77
:100C900002109D4A1278805C814220DAA34A02EB5E
:100CA00044025178A14A12F814000EF035FEA04813
:100CB0000078012801DD601CC4B201E00FE01EE0F5
:100CC0009E4801789E4800780EF0F7FB9A4801781C
:100CD000984800780FF01EFC11F06BF8B8E09948C6
:100CE0000078844291DC54B9904A517810780EF023
:100CF00013FE11F079FB03208649087011E483E0AC
:100D00008A4A904B1B7802EB43025178874A8D4BFD
:100D10001B7812F813000FF0BAFA8549087083485F
:100D20008849097810F81100824908707F48854980
:100D3000097800EB410040787F4908707C480078D2
:100D4000F0B379487B49097800EB01107A490978BA
:100D5000415C6E48774A127800EB0210764A1278AE
:100D6000805C01446C486A4A127800EB0210664AC3
:100D70001278805C814247DA67486E49097800EB57
:100D800001106D490978415C60486A4A127800EBAD
:100D90000210694A1278805C081A002834DD634A20
:100DA000684B1B7802EB43025178604A654B1B7815
:100DB00012F813000EF0B0FD5C486249097800E0BB
:100DC00022E010F811005649087058485D4909782A
:100DD00000EB41004078534908705A480478544861
:100DE0000078012801DD601CC4B2544801785448E1
:100DF00000780EF062FB504801784E4800780FF002
:100E000089FB10F0D6FF08E04E480078401EC0B2C3
:100E10004C49087000287FF473AF00BF4948007840
:100E200050B9424A517810780EF076FD11F0DCFA94
:100E300003203849087071E438480078424909783D
:100E4000884204DA35480078401C3449087000BFF5
:100E500064E403F0E1FE3D4803F013FF03F0DCFE21
:100E60003B4803F00EFF00203A4908803A490870D9
:100E700026E000203949087019E003F0CDFE384A19
:100E8000354B1B7802EB0312344B1B78D15C314A93
:100E900012882F4BD01803F018FF2E480088801CB2
:100EA0002C4908802D480078401C2C4908702B489C
:100EB00000781028E1DB28480078401C264908709B
:100EC000254800781028D4DB0020224908802249D8
:100ED000087054E000202149087047E01D49098846
:100EE0001B4A881803F00FFFC1B21D481A4A127836
:100EF00000EB0210194A1278815416480088801CB1
:100F00001449088015482DE0030E00200B10002026
:100F1000020E0020080E00200B0E002063000020AF
:100F200060000020610000200B0F0020E073002013
:100F30005D00002065000020660000200A0E0020F1
:100F4000090E0020210000206400002000DC0108C0
:100F500000E001084C0000201D0000201E000020C1
:100F6000E07500200078401CFE490870FD480078BC
:100F70001028B3DBFC480078401CFB490870FA4895
:100F800000781028A6DB0120F84908700020F849F5
:100F9000088003F041FEF6490988F64A8818F649A8
:100FA000097803F092FEF2480088801CF04908801E
:100FB00003F032FEEE490988EE4A8818EF490978B5
:100FC00003F083FEEA480088801CE949088003F0AA
:100FD00023FEE7490988E74A8818E949097803F0B8
:100FE00074FEE3480088801CE149088003F014FE89
:100FF000DF490988DF4A8818E249097803F065FE6D
:10100000DB480088801CDA49088003F005FED849D7
:101010000988D84A8818DC49097803F056FED44874
:101020000088801CD249088003F0F6FDD049098869
:10103000D04A8818CD49097803F047FECC4800888B
:10104000801CCB490880D1480078401CCF490870EB
:10105000C82004F0F6FACE480078012803D0CC4826
:101060000078032806D10420CA4908703D20CA49E7
:101070000870B2E4C6480078022806D10520C549A8
:1010800008703C20C4490870A7E400BF0120C34990
:101090000870BC480178BA4800780FF072FB002055
:1010A000B349088003F0B8FDBD4803F0EAFD03F042
:1010B000B3FDAF490988BA4A8818BA49097803F0DC
:1010C00004FEAB480088801CA94908800020B6496E
:1010D000088018E003F0A0FDB34A128802EB420238
:1010E000B24B1A449178A24A1288AD4BD01803F043
:1010F000ECFD9F480088801C9D490880AA48008814
:10110000401CA9490880A8480088C828E2DB9C4800
:101110000078A74908709B480078487013F076FB68
:10112000074600EBD7704010861CF01706EB907056
:101130008010A6EB80009F490870904801788E4887
:1011400000780FF0DAFD00208949088003F064FD83
:10115000994803F096FD03F05FFD85490988964A9A
:1011600088189649097803F0B0FD81480088801CF2
:101170007F49088000208C49088018E003F04CFD6E
:10118000894A128802EB42028D4B1A449178784AC0
:101190001288894BD01803F098FD75480088801C90
:1011A0007349088080480088401C7F4908807E4839
:1011B0000088C828E2DB002078490870682010F019
:1011C000E2FA00207F4908807F49088026207F4975
:1011D000087000BF7B4800883228FBDB10F0EDFC74
:1011E00000206349088009886D4A881803F08BFD48
:1011F0006C4908705E480088801C5D4908800020AA
:101200006949088016E05A490988654A881803F038
:101210007AFD6549098801EB4101644A11448870EF
:1012200053480088801C524908805F480088401C51
:101230005D4908805C480088C828E4DB01206449D7
:1012400008705548007812F049FE00206049087087
:10125000052002F089FC062002F086FC072002F03F
:1012600083FC082002F080FC4748007860B34648C1
:101270000078012812D1682010F085FA0020514929
:1012800008805149088026205049087000BF4D4809
:1012900000883228FBDB10F0B9FC15E03A480078F2
:1012A000022811D1672010F06EFA0020454908800D
:1012B0004549088026204549087000BF41480088FC
:1012C0003228FBDB10F079FC30480078012820D16F
:1012D000002002F08EFCE8203E49088010F06CF9F6
:1012E00028203C4908802648007831490870254864
:1012F00000784870002010F04BF910F0D9F823481E
:101300000078401C21490870022022490870FFF72C
:1013100066BB0020164908800988274A881803F010
:10132000F2FC2649087012480088801C1049088089
:1013300000201D49088051E00D4909881E4A88187F
:1013400003F0E1FC1849098801EB41011C4A1144F2
:10135000887007480088801C05490880124800886A
:10136000401C39E01E0000201D0000201F0000204E
:101370004C00002000DC0108020E0020030E0020BB
:10138000090E00200A0E0020231400201C0000205B
:101390001B000020080E00205C000020110C002023
:1013A00000F00108010E00205A000020E077002024
:1013B0000B1200200D12002000E801080E1400207E
:1013C000E07A0020E40B0020E80B0020E70B00206F
:1013D000201400202A140020FE490880FD480088BF
:1013E000C828A9DB0120FC490870FC4908703C2092
:1013F00013F0A3F90020F9490870F749087013F0B9
:101400004EFAF7480078012803D0F5480078022802
:101410002BD10320F2490870F020F2490860B42073
:10142000F1490860F020F1490860052002F09CFBBA
:10143000062002F099FB072002F096FB082002F03C
:1014400093FB4FF4FA7004F0FCF8002002F0D1FB9B
:10145000E7480078E7490870E748007848700020BE
:10146000E64908700420E6490870DD480078032842
:101470002CD10420DA490870F020DA490860B42041
:10148000D9490860F020D9490860052002F06CFBBA
:10149000062002F069FB072002F066FB082002F03C
:1014A00063FB4FF4FA7004F0CCF8002002F0A1FBCB
:1014B000CF480078CF490870CF48007848700020A6
:1014C000CE4908700420CE49087025E0C448007851
:1014D000042802D0C2480078F0B91CE00120C949B4
:1014E0000870C9480078092802D0C748007810B9A8
:1014F0000120C5490870002002F07BFBC24800783B
:1015000002F032FB4FF47A7004F09BF8BE4800788A
:10151000401CBD490870E1E7F8E1BC480178BC48CF
:1015200000780FF0EAFB0020BA49088003F074FB52
:10153000B94803F0A6FB03F06FFBB6490988B64A29
:101540008818B649097803F0C0FBB2480088801CAF
:10155000B049088000209F49088018E003F05CFB38
:101560009C4A128802EB4202AD4B1A449178A94A78
:101570001288A94BD01803F0A8FBA6480088801C4D
:10158000A449088093480088401C924908809148EB
:101590000088C828E2DB9E480078964908709B487E
:1015A0000078487013F05BF9861CF01706EB90701A
:1015B0008010A6EB8000914908708F4801788C4814
:1015C00000780FF09AFB00209249088003F024FB7A
:1015D000944803F056FB03F01FFB8E490988914A9B
:1015E00088188E49097803F070FB8A480088801CAF
:1015F0008849088000207749088018E003F00CFB38
:10160000744A128802EB4202854B1A449178814A4F
:101610001288844BD01803F058FB7E480088801C49
:101620007C4908806B480088401C6A4908806948EA
:101630000088C828E2DB682010F0A5F800207A496D
:1016400008807A49088026207949087000BF7648CA
:1016500000883228FBDB10F0B0FA00206D490880CA
:1016600009886D4A881803F04EFB6C490870694878
:101670000088801C6749088000205649088016E0D1
:1016800064490988644A881803F03DFB5149098878
:1016900001EB4101624A114488705E480088801C59
:1016A0005C4908804B480088401C4A4908804948EA
:1016B0000088C828E4DB01205E4908703C2013F054
:1016C0003CF800205B4908705B48007860B35A48DA
:1016D0000078012812D1682010F055F800205249F6
:1016E00008805249088026205149087000BF4E48A2
:1016F00000883228FBDB10F089FA15E04E480078AC
:10170000022811D1672010F03EF8002046490880D9
:101710004649088026204649087000BF4248008894
:101720003228FBDB10F049FA4448007801281FD129
:10173000002002F05EFAE820414908800FF03CFFEB
:1017400028203F490880324800782A4908702F48ED
:101750000078487000200FF01BFF0FF0A9FE3748FB
:101760000078401C35490870022025490870CEE5F4
:1017700000202849088009882A4A881803F0C3FAFB
:101780002649087023480088801C224908800020D0
:101790001049088016E01F490988224A881803F07A
:1017A000B2FA0C49098801EB41011D4A11448870C5
:1017B00018480088801C1749088006480088401C8B
:1017C0000449088003480088C828E4DB0120024956
:1017D000087037E05A000020200000202414002068
:1017E0001B00002040140020301400205014002062
:1017F000020E00200B120020030E00200D1200200C
:10180000080E0020110C0020580000200A0E0020B5
:10181000090E00204C00002000E401080E140020F6
:10182000E07A002000E80108E40B0020E80B00202B
:10183000E70B002020140020231400201C000020AF
:101840002A140020FA4908703C2012F076FF00208C
:10185000F7490870F749087013F021F8F648007846
:1018600002282FD10120F4490870A020F349086014
:101870007820F3490860B420F2490860052002F09E
:1018800073F9062002F070F9072002F06DF90820C4
:1018900002F06AF94FF4FA7003F0D3FE002002F070
:1018A000A8F9E9480078E9490870E94800784870E3
:1018B0000020E84908703D20E74908700420E74906
:1018C000087021E0DC480078F0B91CE00120E44910
:1018D0000870E4480078092802D0E248007810B97E
:1018E0000120E0490870002002F083F9DD4800780B
:1018F00002F03AF94FF47A7003F0A3FED948007869
:10190000401CD8490870E1E700E000BF00BF00BFFD
:10191000FEF786BC2DE9F04107460024002500268D
:101920000020D1490880D14803F0EDF9D049088062
:10193000084600884FF6FF7188427DD00020CA49D2
:101940000880CC49087025E00020CB49087018E0D9
:10195000C5490988C54A881803F0D5F9C1B2C748F6
:10196000C44A127800EB0210C34A12788154BE4870
:101970000088801CBC490880BF480078401CBE49D4
:101980000870BD4800781028E2DBBA480078401C97
:10199000B8490870B74800781028D5DB0020B24954
:1019A00008800988B64A881803F0ADF9A64908707E
:1019B000AD480088801CAC4908800988B04A881866
:1019C00003F0A1F9A2490870A7480088801CA64925
:1019D00008800988AA4A881803F095F9A94908706F
:1019E000A1480088801CA04908800988A44A88185A
:1019F00003F089F9A44908709B480088801C9A4923
:101A0000088009889E4A881803F07DF99F4908706C
:101A100095480088801C944908800988984A88184D
:101A200003F071F99A4908708F480088801C8E492C
:101A300008808548007800E0E0E084490870844828
:101A400000784870642003F0FCFD012002F08CF85F
:101A5000782003F0F6FD002002F0CBF8782003F0A8
:101A6000F0FD012002F080F8782003F0EAFD00206C
:101A700002F0BFF8782003F0E4FDBDE0854800885F
:101A800014285CDA0420754908703D2072490870FA
:101A9000012002F069F8022002F066F84FF47A7033
:101AA00003F0CFFD002002F0A4F84FF4FA7003F029
:101AB000C8FD41E07748008814281CDAC8205F4937
:101AC0000860A0205E490860C8205E4908600120C7
:101AD00002F04AF8022002F047F8032002F044F82E
:101AE000042002F041F84FF47A7003F0AAFD0020C0
:101AF00002F07FF821E06848008814281CDAF02002
:101B00004E490860B4204E490860F0204D490860F5
:101B1000052002F029F8062002F026F8072002F03E
:101B200023F8082002F020F84FF47A7003F089FDC2
:101B3000002002F05EF800E0BCE700BF5DE0564820
:101B40000088142858DA0520444908703C2042498E
:101B50000870072002F008F8082002F005F84FF49A
:101B60007A7003F06EFD002002F043F84FF4FA7033
:101B700003F067FD3AE047480088142818DA462049
:101B8000464908602F490860012001F0EDFF02205E
:101B900001F0EAFF032001F0E7FF042001F0E4FF79
:101BA0004FF47A7003F04DFD002002F022F81EE0A1
:101BB00039480088142819DAF02038490860DC20F8
:101BC00020490860052001F0CFFF062001F0CCFF7E
:101BD000072001F0C9FF082001F0C6FF4FF47A701A
:101BE00003F02FFD002002F004F800E0C3E700BF7F
:101BF00000201149087000E040E700BF1748007856
:101C0000042859D015480078052855D048E02248C6
:101C10000088142803DA02200749087041E01D48B3
:101C2000008814283CDA01200349087039E00000DC
:101C300024140020200000201B000020401400205D
:101C40003014002050140020020E00200B1200203F
:101C5000030E00200D1200205C000020080E002062
:101C6000110C0020580000204C00002000E001086A
:101C70004E0000201D0000201E000020E075002006
:101C800000DC0108090E00200A0E002023140020A9
:101C90001F0000207C0B0020800B00204814002037
:101CA000B5E700BF062001F05FFF4FF47A7003F044
:101CB000C8FC002001F09DFF0020FB4908700120B6
:101CC000FA4908700020FA4908700FF069FC0020FA
:101CD000F8490870F848007801287CD1F24908706A
:101CE0008C20F6490870002001F083FF042001F0E9
:101CF0003BFF052001F038FF6E20F1490880CD2020
:101D0000F04908800FF058FCB4200FF041FC3D2052
:101D1000ED490870B42010F04AFD002636E000249A
:101D200030E0EA48005D10280FD1002503E0681C70
:101D300085B2601C84B2E548005D1028F7D0C5EB81
:101D4000C51188B211F08CF81CE0E048005D0F2846
:101D50000FD1002503E0681C85B2601C84B2DB480B
:101D6000005D0F28F7D0B421694388B210F01FFD41
:101D700008E00020D6490870D449085D10F005FD40
:101D8000601C84B2052CCCDB701C86B2012EC6DB35
:101D90006E20D04908800FF038FC0120CE49087031
:101DA000CE4908700020C0490870012001F0DCFE17
:101DB000032001F0D9FE052001F0D6FE072001F036
:101DC000D3FE03F0CAF8002001F013FF022001F057
:101DD000CBFE042000E050E001F0C6FE062001F03A
:101DE000C3FE082001F0C0FE0020BD49088002F0BB
:101DF00013FFBB490988BB4A8818BB49097802F020
:101E000064FFB7480088801CB549088002F004FFD1
:101E1000B3490988B34A8818B449098802F055FFC4
:101E2000AF480088801CAE49088000200880AF4978
:101E300008800DE0AD48008802F083FFA8480088C4
:101E4000801CA7490880A9480088401CA749088031
:101E5000A6480088A64909888842EBDB002001F0EB
:101E6000C8FE4FF47A7003F0ECFB002001F07CFE1A
:101E700002E0012099490870FBE7BDE8F0812DE9F7
:101E8000F04385B081460024A0460025002600BF0F
:101E9000002001F0AEFE062001F066FE79E09548D4
:101EA000006828BBB8F1000F22D1052003F0C9FB60
:101EB000601C84B2322C05D1002001F09AFE05206E
:101EC00001F052FE642C05D1002001F092FE0420A6
:101ED00001F04AFE962C05D1002001F08AFE032075
:101EE00001F042FEC82C03D1002001F082FE51E037
:101EF0008048006800284CD0012077490870B8F16C
:101F0000000F04D1002001F074FE4FF001080520FD
:101F100003F097FB7748006800283AD007E0701C70
:101F2000C6B20A2003F08DFB3C2E00DD03E07148B1
:101F300000680028F3D100BF3C2E0CDA00262846AA
:101F400001F057FE681CC5B2092D00D101252846B5
:101F500001F00AFE1DE00026284601F04AFE50204E
:101F600003F06FFB284601F0FFFD502003F069FBF2
:101F7000284601F03EFE502003F063FB284601F0A6
:101F8000F3FD4FF4FA7003F05CFB284601F031FEDC
:101F900000E084E700BF00BF564800680028FBD17E
:101FA0004D490870092D81F0BB80DFE815F009006C
:101FB0000B003F00AB002301FF018E02F4057B08FC
:101FC00001F0C9B801204449087002F0FEFE00206B
:101FD00001F00FFE012001F0C7FD022001F0C4FD59
:101FE0004FF4FA6003F02DFB002001F0BDFD1CE072
:101FF00001203A49087040480078092802D03E483C
:10200000007810B901203C490870002001F0F1FD72
:102010003948007801F0A8FD4FF4FA7003F011FB85
:1020200035480078401C34490870E1E701202A490E
:10203000087000202A4908803049088011E002F029
:10204000EBFD274909882E4A881802F01AFE244819
:102050000088801C2249088028480088401C2749A5
:102060000880264800880828E9DB1CE001201B497D
:10207000087021480078092802D01F48007810B95C
:1020800001201D490870002001F0B3FD1A480078B6
:1020900001F06AFD4FF47A7003F0D3FA1648007825
:1020A000401C15490870E1E753000020D30B0020C5
:1020B000650900201C000020380D00209C0900202C
:1020C000A00900202A14002028140020390D002027
:1020D000201400202C140020100C0020110C0020D3
:1020E0004C000020006001088C0900208A090020B3
:1020F0002E66010828012242580000205A000020C4
:1021000000EC01080020FE4908800120FD4908700C
:10211000FD4908702DE0FD48006800280FDB002015
:1021200001F067FDF9490F68F91707EB5171C91004
:10213000A7EBC101491CC8B201F016FD12E0F3483B
:10214000006800280EDA002001F053FDEF490F6807
:10215000F91707EB5171C910A7EBC1010831C8B2DB
:1021600001F002FDE648008840F2DC51884200DDC3
:1021700000E0D0E700BF0020E349087002F04CFD0A
:10218000E34802F07EFD02F047FDE2480168E048C6
:1021900002F09BFD0120E0490870002001F0E4FC02
:1021A000642003F04EFA002001F023FD0120DB49FA
:1021B00008701EE0D7480168D9A012F025FCD74866
:1021C0000078092802D0D548007810B90120D349F9
:1021D0000870002001F00DFDD048007801F0C4FC2B
:1021E0004FF4FA7003F02DFACC480078401CCB492C
:1021F0000870DFE70120C349087031E0CB48008850
:10220000CB490978401A001DCA4908600846006891
:10221000082801DD08200860C6480068012802DAA5
:102220000120C4490860002001F0E3FCC14908789E
:1022300001F09AFCC0480068012807D1052003F08E
:1022400000FABD480068012800D10AE0BB480288B6
:10225000B6480188BAA012F0D7FB642003F0F1F968
:10226000CCE700BF002001F07FFC4FF4FA6003F0E0
:10227000E8F9002001F0BDFC31E0B0480088AC492D
:102280000978401A001DAB49086008460068082814
:1022900001DD08200860A7480068012802DA012053
:1022A000A4490860002001F0A4FCA249087801F0CC
:1022B0005BFCA1480068012807D1052003F0C1F9A3
:1022C0009D480068012800D10AE09C480288974890
:1022D00001889BA012F098FB642003F0B2F9CCE7D0
:1022E00000BF002001F085FC042001F03DFC4FF40C
:1022F0007A7003F0A6F9002001F07BFC032001F0C6
:1023000033FC4FF47A7003F09CF9002001F071FC6B
:10231000022001F029FC4FF47A7003F092F90020BA
:1023200001F067FC012001F01FFC4FF47A7003F00C
:1023300088F90020734908702920864908706420B4
:102340008549086041F2883003F07BF932208249E8
:10235000086041F2883003F074F911207E4908606A
:1023600041F2883003F06DF900207A4908701CE0D2
:1023700001206449087069480078092802D067483C
:10238000007810B9012065490870002001F031FC87
:102390006248007801F0E8FB4FF47A7003F051F9DD
:1023A0005E480078401C5D490870E1E701206B49F8
:1023B0000870544908706A49087026E06948006846
:1023C00069490968694A1268504B1B68CDE90132B6
:1023D000CDE90310594800880090544803886448A8
:1023E000028864480188644812F00EFB5248006875
:1023F000012806D1052003F024F94F48006800B1F8
:1024000004E04FF4967003F01CF9D7E700BF0020FA
:1024100001F0AAFB4FF47A7003F013F9002001F0E9
:10242000E8FB23E050480268384800684F490968D3
:10243000524B1B68CDE90031CDE9020250480368D8
:102440005048026850480168504812F0DDFA3A4896
:102450000068012806D1052003F0F3F8364800682B
:1024600000B104E04FF4967003F0EBF8DAE700BF38
:102470002AE001202849087028480078092802D05D
:102480002648007810B9012024490870002001F086
:10249000B0FB2248007801F067FB4FF47A7003F03C
:1024A000D0F81E480078401C1C490870224800687B
:1024B000012809D1052003F0C4F81F48006801284D
:1024C00002D14FF00008E3E4D3E701200D49087082
:1024D0002F4802F018FC2F490880084600884FF664
:1024E000FF7188427ED000202B4908800988284A45
:1024F000881802F008FC29490860274800884FE046
:10250000000B0020100C0020030B0020F00A00201C
:1025100000FC0108E40A0020110C002058000020F3
:102520004759524F303A25642C000000880B002098
:102530005866010854000020280122428C0B00201C
:102540006469736C3A25642C646973723A2564205B
:102550000D0A0000E70B0020380C0020D30B0020F0
:102560008E0900200C0C0020B40A0020E00A002094
:10257000800B00207C0B002080B80108500900204F
:102580004C0900204809002044090020CCB801086B
:1025900000EC0108500000204C0000202400002026
:1025A000801CFE4908800988FD4A881802F0ABFBB0
:1025B000FC490860F9480088801CF84908800988AF
:1025C000F74A881802F09FFBF7490860F348008833
:1025D000801CF24908800988F14A881802F093FBB0
:1025E000F24900E070E00860EC480088801CEB498C
:1025F00008800988EA4A881802F085FBEC490860DF
:10260000E6480088801CE54908800988E44A881863
:1026100002F079FBE7490860E0480088801CDF4948
:1026200008800988DE4A881802F06DFBE2490860DC
:10263000DA480088801CD94908800988D84A881857
:1026400002F061FBDD490860D4480088801CD34952
:102650000880D4480268DA480168DAA012F0D4F998
:10266000D4480268D2480168DFA012F0CDF9D348FF
:102670000268D1480168E5A012F0C6F9CB480268AB
:10268000C9480168EAA012F0BFF91CE00120F24934
:102690000870F2480078092802D0F048007810B994
:1026A0000120EE490870002001F0A3FAEB48007801
:1026B00001F05AFA4FF47A7002F0C3FFE74800784D
:1026C000401CE6490870E1E70120E5490870002058
:1026D00001F08FFA11E0012001F046FA022001F02A
:1026E00043FAE0480068012807D1052002F0A9FF5D
:1026F000DC480068012800D100E0ECE700BF0020C2
:1027000001F077FA042001F02FFA4FF47A7002F00A
:1027100098FF002001F06DFA032001F025FA4FF434
:102720007A7002F08EFF002001F063FA022001F0BF
:102730001BFA4FF47A7002F084FF002001F059FA7E
:10274000012001F011FA4FF47A7002F07AFFC648C6
:10275000006897490860C5480068984908600020EB
:1027600001F047FA4FF4FA7002F06BFF11E0072016
:1027700001F0FAF9082001F0F7F9BA4800680128D9
:1027800007D1052002F05DFFB6480068012800D19E
:1027900000E0ECE700BF002001F02BFA042001F07C
:1027A000E3F94FF47A7002F04CFF002001F021FAB7
:1027B000032001F0D9F94FF47A7002F042FF0020B3
:1027C00001F017FA022001F0CFF94FF47A7002F00D
:1027D00038FF002001F00DFA012001F0C5F94FF497
:1027E0007A7002F02EFFA0480068724908609F4886
:1027F000006871490860002001F0FBF94FF4FA709D
:1028000002F01FFF11E0042001F0AEF9052001F0F5
:10281000ABF994480068012807D1052002F011FFA8
:1028200090480068012800D100E0ECE700BF0020DC
:1028300001F0DFF9042001F097F94FF47A7002F00B
:1028400000FF002001F0D5F9032001F08DF94FF4CD
:102850007A7002F0F6FE002001F0CBF9022001F0C0
:1028600083F94FF47A7002F0ECFE002001F0C1F918
:10287000012001F079F94FF47A7002F0E2FE7C4811
:1028800000684F4908607B4800684749086000209D
:1028900001F0AFF94FF4FA7002F0D3FE11E003201B
:1028A00001F062F9062001F05FF96E480068012826
:1028B00007D1052002F0C5FE6A480068012800D152
:1028C00000E0ECE700BF002001F093F9042001F0E4
:1028D0004BF94FF47A7002F0B4FE002001F089F950
:1028E000032001F041F94FF47A7002F0AAFE0020B3
:1028F00001F07FF9022001F037F94FF47A7002F00D
:10290000A0FE002001F075F9012001F02DF94FF42F
:102910007A7002F096FE56480068224908605548D1
:1029200000682249086000201C490880524908803C
:1029300011E002F071F919490988194A881802F062
:10294000A0F916480088801C144908804A4800886D
:10295000401C49490880484800880828E9DB0020D5
:102960000E49088002F058F90C4909880C4A881869
:102970001349096802F0A9F908480088801C074932
:10298000088002F049F905490988054A881805496F
:10299000096802F09AF9014800886FE04C000020B5
:1029A00000EC01083400002028000020380000203E
:1029B0002C0000203C0000203000002040000020BF
:1029C000240000207261774C46617672676E656103
:1029D000723A25642C7261774C4661767267666143
:1029E000723A2564200D0A007261774C6176726735
:1029F0006E6561723A25642C7261774C61767267FC
:102A00006661723A2564200D0A00000072617752F7
:102A1000617672676E6561723A25642C72617752D5
:102A2000617672676661723A2564200D0A000000C3
:102A30007261775246617672676E6561723A25649B
:102A40002C7261775246617672676E6561723A25C3
:102A500064200D0A00000000110C00205800002026
:102A600065090020280122424C090020500900205D
:102A700044090020480900205A000020801CFE491B
:102A8000088002F0C9F8FC490988FC4A8818FC490A
:102A9000096802F01AF9F8480088801CF649088095
:102AA00002F0BAF8F4490988F44A8818F549096827
:102AB00002F00BF9F0480088801CEF49088002F012
:102AC000ABF8ED490988ED4A8818EF49096802F02A
:102AD000FCF8E9480088801CE749088002F09CF86F
:102AE000E5490988E54A8818E849096802F0EDF8DF
:102AF000E1480088801CE049088002F08DF8DE493A
:102B00000988DE4A8818E249096802F0DEF8DA48E6
:102B10000088801CD849088002F07EF8D6490988D0
:102B2000D64A8818DB49096802F0CFF8D2480088F5
:102B3000801CD1490880002001F016F84FF49670EF
:102B400002F07FFD002001F054F84FF4967002F07F
:102B500078FD0020D04908701CE00120CF490870A2
:102B6000CF480078092802D0CD48007810B901205C
:102B7000CB490870002001F03CF8C948007800F00B
:102B8000F3FF4FF47A7002F05CFDC5480078401CFA
:102B9000C3490870E1E70120C24908700020B64926
:102BA0000880C149087024E00020C049087017E07F
:102BB000B1490988BE4A881802F0A5F8BD49BA4A49
:102BC000127801EB0211B94A12788854AA48008899
:102BD000801CA9490880B5480078401CB34908709A
:102BE000B24800781028E3DBAF480078401CAE49BB
:102BF0000870AD4800781028D6DB00209E49088078
:102C00000988AD4A881802F07EF8AC4908709A48E5
:102C10000088801C984908800988A74A881802F013
:102C200072F8A749087094480088801C924908806F
:102C30000988A14A881802F066F8A24908708E48EF
:102C40000088801C8C49088009889B4A881802F0FB
:102C50005AF89D49087088480088801C8649088079
:102C60009AA011F0D1FE01F049F99DA011F0CCFE1F
:102C700000208D49087022E09DA011F0C5FE0020C3
:102C80008A4908700FE08B48874A127800EB0210DF
:102C9000864A1278815C97A011F0B6FE83480078CE
:102CA000401C82490870814800781028EBDB92A014
:102CB00011F0AAFE7C480078401C7B4908707A48D5
:102CC00000781028D8DBAFF2787011F09DFE8CA050
:102CD00011F09AFE0020684908808E4908801FE0A4
:102CE000654909888C4A881802F00DF889490988D5
:102CF00001EB4101894A114488705F480088801CBB
:102D00005D4908808348008800EB400010448178CA
:102D100078A011F079FE7F480088401C7D4908802A
:102D20007C480088C828DBDB7DA011F06DFE002008
:102D300051490880774908801FE04F4909887E4A39
:102D4000881801F0E0FF7349098801EB4101734ADB
:102D50001144887048480088801C474908806D48A5
:102D6000008800EB40001044817862A011F04CFE16
:102D700068480088401C6749088066480088C82861
:102D8000DBDBAFF6340011F03FFE6CA011F03CFE2F
:102D90000020394908805F4908801FE036490988CA
:102DA0006B4A881801F0AFFF5A49098801EB4101CD
:102DB0005A4A1144887030480088801C2E49088087
:102DC0005448008800EB40001044817861A011F065
:102DD0001BFE50480088401C4E4908804D48008822
:102DE000C828DBDB4EA011F00FFE0020224908802E
:102DF000484908801FE020490988574A881801F08F
:102E000082FF4449098801EB4101444A114488701A
:102E100019480088801C184908803E48008800EB4B
:102E20004000104481784BA011F0EEFD3948008835
:102E3000401C3849088037480088C828DBDB47A099
:102E400011F0E2FD00200C4908803249088095E02D
:102E500009490988094A881801F055FF4449088042
:102E600005480088801C044908804148018821A049
:102E700011F0CAFD27487DE04C00002000EC01085D
:102E800028000020380000202C0000203C000020FA
:102E9000300000204000002065090020110C0020B7
:102EA00058000020100C00201D0000201E000020F3
:102EB00000E00108E075002000DC0108020E00209F
:102EC000030E0020090E00200A0E0020626C6F63C2
:102ED0006B20706963747572653A0D0A000000001A
:102EE000626C6F636B20646174613A0D0A000000CC
:102EF0007B0D0A0025642C007D2C0D0A00000000CB
:102F0000343520737075727420676F207061746837
:102F10003A2000005A00002000F00108E07700206D
:102F200020202020202020200D0A6261636B207069
:102F30006174683A2000000000F8010839302073FD
:102F40007075727420676F20706174683A20000099
:102F500000E401082564200000E80108202020206A
:102F60002020200D0A495220444154413A200000BB
:102F7000500000200088401CFE490880FD48008861
:102F80000828FFF665AFFCA011F03EFD0020F949CE
:102F900008800DE0FD48F74A128830F81210AFF2B1
:102FA000AC0011F031FDF3480088401CF149088065
:102FB000F0480088F928EDDBF5A011F025FDF5A01B
:102FC00011F022FD0020EB4908800DE0F648E94AA7
:102FD000128830F81210AFF2E40011F015FDE54848
:102FE0000088401CE3490880E2480088F928EDDBAE
:102FF000E7A011F009FDEDA011F006FD0020DD496C
:1030000008800DE0EE48DB4A128830F81210AFF26B
:103010001C1011F0F9FCD7480088401CD5490880E5
:10302000D4480088F928EDDBD9A011F0EDFCE5A02B
:1030300011F0EAFC0020CF4908800DE0E648CD4AB7
:10304000128830F81210AFF2541011F0DDFCC948AC
:103050000088401CC7490880C6480088F928EDDB75
:10306000CBA011F0D1FC1CE00120DC490870DC4849
:103070000078092802D0DA48007810B90120D84930
:103080000870002000F0B5FDD548007800F06CFD18
:103090004FF47A7002F0D5FAD1480078401CD0493C
:1030A0000870E1E70120CF49087001F056FF01F0F8
:1030B000B3FDCD4801F0E5FD01F0AEFDCB4801F0D8
:1030C000E0FD01F0A9FDCA4801F0DBFD01F0A4FD1F
:1030D000C84801F0D6FD01F09FFDC74801F0D1FDC1
:1030E00001F09AFDC54801F0CCFD18E00120BB4974
:1030F0000870002000F07DFDB948007800F034FD34
:103100004FF47A7002F09DFAB5480078401CB4493B
:10311000087008460078092801D101200870E5E709
:1031200018E00120AD490870002000F062FDAC48B5
:10313000007800F019FD4FF47A7002F082FAA84886
:103140000078401CA649087008460078092801D17B
:1031500001200870E5E700BF05B0BDE8F08330B599
:103160008BB00446002500BF02F040FF0AA808F01B
:10317000B4FE0AAA0121084604F039FF00BF00BFCF
:1031800000BF03F06BF8054600BF00BF9C48007805
:10319000401C9B49087000BF00BF284603F062F83E
:1031A00000BF00BF00BF0AAB002296A1994808F0FB
:1031B00008FA0AAB002298A19A4808F002FA0AAB72
:1031C000002299A19A4808F0FCF90AA803210022DC
:1031D0000592CDE906210890104680210C22954BDE
:1031E000CDE90132CDE9031004200023924A93A1D6
:1031F0000090954809F04AFA0AA803210022059296
:10320000CDE906210890104680210C228F4BCDE994
:103210000132CDE90310062000238D4A8DA10090D4
:103220008F4809F033FA0AA8032100220592CDE95C
:1032300006210890104680210C228A4BCDE90132EC
:10324000CDE9031007200023874A88A100908A480F
:1032500009F01CFA0AA989480AF08DFD00BF00BFD9
:1032600000BF02F0FBFF054600BF00BF64480078C6
:10327000401E6349087008460078A0B9804800885D
:10328000002809DD00BF00BF284602F0EBFF00BFA9
:1032900000BF05F094FA0DE000BF00BF284602F021
:1032A000E1FF00BF06E000BF00BF284602F0DAFFE2
:1032B00000BF00BF00BF0BB030BD0020002100BF29
:1032C0000AE0002105E0F0226E4B03EB00135A5494
:1032D000491C1029F7DB401C1028F2DB1122694B36
:1032E0001A7070221A74704770B5092002F0EBFA58
:1032F00002F06AF94FF4E131482002F052FB00F08D
:1033000045FF02F09AF800F0C0FD02F080F801F0ED
:10331000CBFF02F026F85C4801F0F5FC5B49086041
:1033200008460068401C002821D1002440F2FC70AF
:10333000086001202B4908700020554908800120B1
:1033400054490870C3E054480068002810DB00208E
:1033500000F04FFC50490D68E91705EB5171C91099
:10336000A5EBC101491CC8B200F0FEFBA9E0EBE0EF
:1033700094E000005A0000200D0A75313620646187
:10338000746166315B3235305D3D7B00900000201A
:10339000307D3B000D0A7531362064617461663200
:1033A0005B3235305D3D7B00840200200D0A7531B3
:1033B0003620646174616C5B3235305D3D7B0000AA
:1033C000780400200D0A7531362064617461725BE7
:1033D0003235305D3D7B00006C060020110C002072
:1033E00058000020100C002000E0010800DC01085B
:1033F00000F0010800F8010800E4010800E80108F5
:10340000D40C00206261636B67726F756E645F73CA
:10341000656D000090250020626565705F73656DC5
:1034200000000000B82500206C65645F73656D00C6
:10343000E0250020081E00207F1E00084B45592073
:103440007461736B00000000441D0020CC2000203C
:1034500015190008505245444F207461736B0000E9
:1034600008200020902300201D0200084D415A45ED
:10347000207461736B000000CC22002080140020B7
:10348000980C0020E075002000FC0108E40A0020F0
:10349000000B0020030B0020F00A0020FE4800680B
:1034A00000280EDA002000F0A4FBFB490D68E917A4
:1034B00005EB5171C910A5EBC1010831C8B200F08C
:1034C00053FBF6480088B0F57A7F00DD00E03AE76C
:1034D00000BF0020F249087001F09EFBF14801F0A6
:1034E000D0FB01F099FBF0480168EE4801F0EDFBDC
:1034F0000120EE490870002000F036FB642002F045
:10350000A0F8002000F075FB01240DE0002000F081
:1035100070FB204600F028FBC82002F092F8601CE7
:10352000C4B2092C00D100E0F0E700BF002000F099
:103530001BFB4FF4FA7002F084F8002000F059FBF6
:103540000020DA49087000BF70BD2DE9F0418AB053
:1035500000244FF4A06002F0A7FAFFF7C5FEFFF7C2
:10356000ACFED34801F0CFFBD24908800846008862
:103570004FF6FF7188427DD00020CF49088009882E
:10358000CB4A881801F0BFFBCC490860CA480088C4
:10359000801CC94908800988C54A881801F0B3FB16
:1035A000C7490860C4480088801CC349088009884E
:1035B000BF4A881801F0A7FBC2490860BE480088CE
:1035C000801CBD4908800988B94A881801F09BFB16
:1035D000BD490860B8480088801CB7490880098840
:1035E000B34A881801F08FFBB8490860B2480088D8
:1035F000801CB14908800988AD4A881801F083FB16
:10360000B3490860AC480088801CAB490880098831
:10361000A74A881801F077FBAE490860A6480088E1
:10362000801CA54908800988A14A881801F06BFB15
:10363000A9490860A0480088801C9F490880A448C8
:10364000006812F0C4F907468846A048006812F0E6
:10365000BEF905460E460320A049FA22CDE9042111
:10366000069000219E480A469E4BCDE90078CDE9A0
:10367000021000E076E02846314601F097FA9648BD
:10368000006812F0A4F9074688469248006812F0D4
:103690009EF905460E4602209349FA22CDE90421FF
:1036A0000690002191480A468E4BCDE90078CDE97D
:1036B00002102846314601F079FA8148006812F07C
:1036C00086F9074688467D48006812F080F905466D
:1036D0000E4604208649FA22CDE9042106900021F5
:1036E00084480A46844BCDE90078CDE9021028468B
:1036F000314601F05BFA7448006812F068F9074639
:1037000088467048006812F062F905460E460120AE
:103710007A49FA22CDE904210690002175480A462B
:10372000754BCDE90078CDE902102846314601F00D
:103730003DFA082000F018FA782001F082FF0020FE
:1037400000F057FA782001F07CFF082000F00CFA16
:10375000782001F076FF002000F04BFA782001F08D
:1037600070FF4CE003205D49FA22CDE90421069068
:1037700000215B48CDE9021061480A46594BCDE96A
:10378000001008465F4901F011FA02205649FA225A
:10379000CDE90421069000215448CDE902100846E5
:1037A000594900224F4BCDE900011046574901F01D
:1037B000FDF904204E49FA22CDE9042106900021AA
:1037C0004C48CDE902100846514900224A4BCDE948
:1037D000000110464F4901F0E9F901204749FA225A
:1037E000CDE90421069000204249CDE902014A4971
:1037F0000246414BCDE90001484901F0D7F909A83B
:1038000004F0C6F900BF00BF00BF02F027FD044668
:1038100000BF00BF42480078401C4149087000BF0B
:1038200000BF204602F01EFD00BF00BF00BF09A878
:10383000032100220592CDE90621089010464FF49D
:1038400000713322374BCDE90132CDE9031003205B
:103850000023AFF2F56234A10090364808F016FF5D
:1038600000BF00BF00BF02F0F9FC044600BF00BF6C
:103870002B480078401E2A4908700846007848B94D
:103880002D48008800285EDD00BF00BF204602F002
:10389000E9FC53E05EE00000F00A0020000B00208D
:1038A000030B002000FC0108E40A0020110C00209A
:1038B00000EC0108500000204C00002024000020F3
:1038C0003400002028000020380000202C000020B8
:1038D0003C00002030000020400000207804002040
:1038E00000805740008040406C06002000C05740D8
:1038F0009000002000A06A400000404084020020A8
:1039000000907B4000DC9A4000F07540009C9540A0
:1039100000005E4000309A4000C05B4000089740C5
:10392000D40C0020441500207374617274207461FB
:10393000736B000080140020980C002000BF00BFB3
:1039400004F03DFF0DE000BF00BF204602F08AFCFE
:1039500000BF06E000BF00BF204602F083FC00BFAE
:1039600000BF00BF09A804F0E2FB00200AB0BDE8D8
:10397000F081704700BFFEE700BFFEE700BFFEE733
:1039800000BFFEE7704770470CB500200190009023
:103990006C48006840F480306A49086000BF69489C
:1039A000006800F4003000900198401C01900098DD
:1039B00018B90198B0F5A06FF1D16248006800F421
:1039C000003010B10120009001E00020009000982C
:1039D000012843D15C48006840F010005A49086053
:1039E0000846006820F0030008600846006840F0C0
:1039F00002000860534840685249486008464068E1
:103A000048600846406840F4806048600846406866
:103A100020F47C1048600846406840F4E810486094
:103A20000846006840F08070086000BF45480068A4
:103A300000F000700028F9D04248406820F00300F0
:103A4000404948600846406840F00200486000BFB6
:103A50003C48406800F00C000828F9D10CBD10B5B6
:103A6000FFF792FF10BD10B53648006840F0010026
:103A70003449086008464068344908403149486084
:103A800008460068324908402E4908600846006828
:103A900020F4802008600846406820F4FE0048605A
:103AA0004FF41F008860FFF7DAFF4FF000602949EC
:103AB000086010BD10B5002100200022214B5B687A
:103AC00003F00C0121B1042906D0082928D107E010
:103AD000214B224C236027E01F4B204C236023E026
:103AE000184B5B6803F47010164B5B6803F480326C
:103AF000022303EB904022B9194B4343174C236038
:103B00000DE0104B5B6803F4003323B1144B4343C7
:103B1000124C236003E0104B4343104C236003E03E
:103B20000D4B0E4C236000BF00BF064B5B68C3F318
:103B300003130C4CE15C094B1B68CB40074C236022
:103B400010BD000000100240002002400000FFF8FD
:103B5000FFFFF6FE08ED00E000127A00780000207A
:103B600000093D007C00002009283FD2DFE800F07A
:103B70002905090D12171B1F24000021F84A1160A6
:103B800035E00021F74A116031E00021F54A121FAB
:103B900011602CE00021F34A083A116027E000216F
:103BA000EF4A116023E00021EE4A11601FE000217E
:103BB000EC4A121F11601AE00021EA4A083A11602B
:103BC00015E00021E64A1160E74AC2F8A411E54A6F
:103BD000121F1160121F1160E14A1160E14A116069
:103BE000121F1160E04AC2F89C1100E000BF00BF44
:103BF000704709283FD2DFE800F02905090D1217A8
:103C00001B1F24000121D64A116035E00121D54A4D
:103C1000116031E00121D34A121F11602CE0012113
:103C2000D04A083A116027E00121CD4A116023E013
:103C30000121CC4A11601FE00121CA4A121F116004
:103C40001AE00121C74A083A116015E00121C44A6F
:103C50001160C54AC2F8A411C24A121F1160121F96
:103C60001160BF4A1160BF4A1160121F1160BE4A45
:103C7000C2F89C1100E000BF00BF704700B50020F3
:103C8000FFF7B7FFB948007810287AD2DFE800F0D4
:103C900008090D11181C232A34383F465057616B10
:103CA00070E00420FFF760FF6CE00320FFF75CFF8B
:103CB00068E00320FFF758FF0420FFF755FF61E09D
:103CC0000220FFF751FF5DE00220FFF74DFF0420C7
:103CD000FFF74AFF56E00220FFF746FF0320FFF7F9
:103CE00043FF4FE00220FFF73FFF0320FFF73CFFB9
:103CF0000420FFF739FF45E00120FFF735FF41E0E1
:103D00000120FFF731FF0420FFF72EFF3AE00120EA
:103D1000FFF72AFF0320FFF727FF33E00120FFF71B
:103D200023FF0320FFF720FF0420FFF71DFF29E0FA
:103D30000120FFF719FF0220FFF716FF22E0012004
:103D4000FFF712FF0220FFF70FFF0420FFF70CFF21
:103D500018E00120FFF708FF0220FFF705FF03200E
:103D6000FFF702FF0EE00120FFF7FEFE0220FFF743
:103D7000FBFE0320FFF7F8FE0420FFF7F5FE01E04D
:103D8000FFE700BF00BF7948407810287AD2DFE80B
:103D900000F008090D11181C232A34383F465057EB
:103DA000616B70E00820FFF7DFFE6CE00720FFF793
:103DB000DBFE68E00720FFF7D7FE0820FFF7D4FE00
:103DC00061E00620FFF7D0FE5DE00620FFF7CCFEA5
:103DD0000820FFF7C9FE56E00620FFF7C5FE0720C2
:103DE000FFF7C2FE4FE00620FFF7BEFE0720FFF7F9
:103DF000BBFE0820FFF7B8FE45E00520FFF7B4FE44
:103E000041E00520FFF7B0FE0820FFF7ADFE3AE0E5
:103E10000520FFF7A9FE0720FFF7A6FE33E00520E7
:103E2000FFF7A2FE0720FFF79FFE0820FFF79CFE8A
:103E300029E00520FFF798FE0620FFF795FE22E017
:103E40000520FFF791FE0620FFF78EFE0820FFF702
:103E50008BFE18E00520FFF787FE0620FFF784FEA3
:103E60000720FFF781FE0EE00520FFF77DFE06200C
:103E7000FFF77AFE0720FFF777FE0820FFF774FEB2
:103E800001E0FFE700BF00BF00BD00B53848806912
:103E900040F00400364988613648006820F00F0081
:103EA000344908600846006840F003000860304864
:103EB000806940F010002E4988612F4800682E4923
:103EC00008600846006840F04050086008464068B6
:103ED00020F0FF0048600846406840F0330048602A
:103EE0000846406820F4706048600846406840F426
:103EF000006048600020FFF77CFE00BD10B5002088
:103F00001E4908701E4908700F2008701DA010F08F
:103F10007BFD00201949087016E01B4817490978F5
:103F200000EB011016490978405C00F0010018B15F
:103F300016A010F069FD02E016A010F065FD0F4814
:103F40000078401C0D4908700C4800781028E4DB0C
:103F500012A010F059FD102009490870D1E00000AE
:103F6000A0012142A4012242000022420B120020A3
:103F70000010024004080140001001401D00002014
:103F80001E0000202B000000E07500202020202BC8
:103F9000000000002D2D2D2B000000000D0A000058
:103FA0005F480078401E5E4908705E480978405CB2
:103FB00000F0080018B15CA010F026FD02E05BA044
:103FC00010F022FD00205A49087069E05848007836
:103FD00058490978884202D15148007878B154484C
:103FE0000078072803D052480078082841D14C486F
:103FF0000078072803D04A480078082839D14C486F
:1040000000784D490978884220D1454800784B49CD
:10401000097888421AD143484549097800EB0110D4
:104020003F490978405C00F0020038B13C48027812
:104030003F48017842A010F0E7FC2CE038480278B5
:104040003B48017840A010F0DFFC24E035483849B7
:10405000097800EB011032490978405C00F0020059
:1040600018B13BA010F0D0FC15E03BA010F0CCFC48
:1040700011E02C482E49097800EB011028490978F5
:10408000405C00F0020018B135A010F0BDFC02E069
:1040900035A010F0B9FC26480078401C244908706F
:1040A00023480078102891DBAFF2101010F0ACFC20
:1040B000AFF2301010F0A8FC00201D49087018E085
:1040C00018481B49097800EB011015490978405C34
:1040D00000F0040020B1AFF24C1010F095FC03E0AA
:1040E000AFF2501010F090FC11480078401C1049BD
:1040F00008700F4800781028E2DBAFF2601010F073
:1041000083FC0748007800283FF74AAF0948017848
:1041100017A010F079FCAFF27C1010F075FC10BD08
:104120001E000020E0750020200000007C00000040
:104130001D000020020E0020090E00200A0E0020A3
:1041400025642C256420000025642C25647C000057
:1041500020242020000000002024207C00000000FB
:1041600020202020000000002020207C00000000F3
:104170002825642C30292049732054686520537405
:104180006172745F506F696E74000000FD48806951
:1041900040F00400FB498861FB48006820F0FF0004
:1041A000F9490860F748806940F01000F5498861D6
:1041B000F6480068F6490840F44908600846006877
:1041C00040F040700860EF48806940F00800ED4919
:1041D0008861F0480068C0F31300EE4908600846A3
:1041E0000068ED490843EB490860E648806940F4FF
:1041F0000070E44988610846C06840F40070C860F7
:104200000846C06820F40070C8600846406820F482
:10421000404048600846406840F400404860DF483D
:104220000068DF490840DD4908600846006808600A
:104230000846006820F480700860081D006820F0BF
:104240000200091D08600846006840F4602008600C
:104250000846006840F4801008600846006820F4B2
:1042600000600860CD482830006820F47000CB4919
:1042700028310860C948083000686FF30B00C7494F
:1042800008310860081D006820F03F00091D086023
:10429000081F006840F46060091F08600846006855
:1042A00040F4E07008600846006840F0380008609C
:1042B0000846006840F007000860081D006840F0EC
:1042C0003800091D08600846006840F007000860D3
:1042D000B248001D006840F00100B049091D0860A7
:1042E0000846006840F00800086000BFAB48001DA9
:1042F000006800F008000028F8D1A848001D0068F8
:1043000040F00400A549091D086000BFA348001D36
:10431000006800F004000028F8D1704701469F486B
:104320003030006820F01F009C4A30321060104688
:104330000068084310609948001D006840F4800040
:10434000964A121D106000BF9448001F006800F0DC
:1043500002000028F8D091484830006880B27047C9
:1043600030B5034600240888984201DA002030BDA9
:10437000901E31F81000984202DD501E80B2F6E720
:10438000501E00EBD0756C10104602EBD075C5F3D3
:104390004F0233E031F81400984213DD104602EB6F
:1043A000D07504EB650402EBD0756D10A2EB4505EA
:1043B000012D01D1501C82B2104602EBD075C5F31D
:1043C0004F0218E031F81400984213DA104602EB5D
:1043D000D075A4EB650402EBD0756D10A2EB45051A
:1043E000012D01D1501C82B2104602EBD075C5F3ED
:1043F0004F0200E003E0012A00D100E0CAE700BF5D
:10440000A0B2B4E70146002901DB0846704700204E
:10441000FCE72DE9F047052001F0EFF80A20FFF74F
:104420007DFF604908800D20FFF778FF5E49088016
:1044300001205E4908605E49C1F898013C2001F006
:10444000DCF80A20FFF76AFF56490988441A20461B
:10445000FFF7D8FF534908800D20FFF75FFF52494F
:104460000988441A2046FFF7CDFF4F4908800020F5
:104470004E4908604E49C1F898014E48007801281D
:104480007ED14D48D0E900104C4AC2E900104C489A
:104490004C490CC803C910F0EDFF4B4A03C24B480E
:1044A00049490CC803C910F0E5FF044622460B46F3
:1044B000454903C911F09AF8454A03C239480088B2
:1044C00011F09CFA80463D480CC8404611F026FC8D
:1044D00006463F480CC8304611F0E0FA044637481B
:1044E0000CC8204610F0C6FF334A03C238480CC837
:1044F0000020384911F012FC044633480CC820460D
:1045000011F0CCFA2F4A03C23348D0E90010334AE5
:10451000C2E90010324833490CC803C910F0AAFFA1
:10452000314A03C2314830490CC803C910F0A2FF18
:10453000044622460B462C4903C911F057F82C4A71
:1045400003C21948008811F059FA804623480CC864
:10455000404611F0E3FB064625480CC8304611F0F2
:104560009DFA04461D480CC8204610F083FF1A4AE5
:1045700003C21F480CC80020164911F0CFFB39E0D8
:1045800041E000000010024000080140001001401E
:104590000000FFF0040C014000003033042401400F
:1045A000FFFFF0004009002042090020B8812142AD
:1045B00000002242640900206008002070080020EA
:1045C0008808002068080020780800209008002053
:1045D000800800200000F03F98080020A808002074
:1045E000C0080020A0080020B0080020C808002053
:1045F000B80800200446F7480CC8204611F04EFACF
:10460000F54A03C20BE0F548008811F0F7F9F44AC7
:1046100003C2F448008811F0F1F9F34A03C20B20F9
:10462000FFF77CFEED4908800C20FFF777FEED498F
:1046300008800120ED490860ED49C1F8BC01ED4852
:10464000007860BBE64903C911F064F9EA490860E3
:10465000E34903C911F08EF985B22846FFF7D2FE6F
:1046600084B2FA22E5492046FFF77AFEE449086061
:10467000DD4903C911F04EF9E2490860DA4903C97E
:1046800011F078F985B22846FFF7BCFE84B2FA2211
:10469000DD492046FFF764FEDC4908602FE0D6487C
:1046A0000068DB490860CE4903C911F033F9D249EB
:1046B00008600846006800EB4000D5490968C1EB76
:1046C000C10108440A2190FBF1F0CB490860CD48B4
:1046D0000068D0490860C44903C911F01BF9C949F1
:1046E00008600846006800EB4000CA490968C1EB51
:1046F000C10108440A2190FBF1F0C249086037204B
:1047000000F07BFF0B20FFF709FEB4490988441A2B
:104710002046FFF777FEB14908800C20FFF7FEFD29
:10472000B0490988441A2046FFF76CFEAD4908805D
:104730000020AE490860AE49C1F8BC01B648007817
:1047400001287CD1B548D0E90010B54AC2E9001073
:10475000B448B5490CC803C910F08CFEB34A03C273
:10476000B348B2490CC803C910F084FE044622467F
:104770000B46AE4903C910F039FFAE4A03C2974851
:10478000008811F03BF90646A5480CC8304611F0E8
:10479000C5FA0446A7480CC8204611F07FF98046A8
:1047A0009F480CC8404610F065FE9C4A03C2A148D1
:1047B0000CC80020A04911F0B1FA04469B480CC86F
:1047C000204611F06BF9984A03C29C48D0E90010CA
:1047D0009B4AC2E900109B489B490CC803C910F0D2
:1047E00049FE9A4A03C29A4898490CC803C910F076
:1047F00041FE044622460B46944903C910F0F6FEDA
:10480000944A03C27748008811F0F8F806468C48AD
:104810000CC8304611F082FA04468E480CC8204677
:1048200011F03CF9804686480CC8404610F022FE44
:10483000824A03C287480CC800207F4900E00AE092
:1048400011F06CFA044681480CC8204611F026F994
:104850007D4A03C20BE06148008811F0CFF86F4A2F
:1048600003C26048008811F0C9F8744A03C2614865
:10487000007860BB694903C911F04CF876490860BB
:10488000664903C911F076F885B22846FFF7BAFDEC
:1048900084B2FA2271492046FFF762FD7049086030
:1048A000664903C911F036F86E490860634903C9C7
:1048B00011F060F885B22846FFF7A4FD84B2FA2211
:1048C00069492046FFF74CFD684908602FE06248BF
:1048D000006867490860514903C911F01BF85E4937
:1048E00008600846006800EB400061490968C1EBB8
:1048F000C10108440A2190FBF1F05749086059486A
:1049000000685C4908604D4903C911F003F8554936
:1049100008600846006800EB400056490968C1EB92
:10492000C10108440A2190FBF1F04E490860BDE83E
:10493000F0872DE9F04F87B004460D4616461F4616
:10494000DDE912ABDDE9108952465B464046494637
:1049500010F0A4FF28D0002213462046294610F06C
:104960009DFF21D0002213463046394610F096FFB5
:104970001AD042464B463046394611F08FF852461F
:104980005B46CDE902012046294611F087F8CDE9C2
:104990000001DDE9022311F0C1F900221346CDE93F
:1049A000040110F07BFF6ED10120334908603349C8
:1049B000C1F8A40132490860091F08602E49086047
:1049C0002F49091D0860091F08602C49C1F89C0186
:1049D00000BFFEE7B0080020A0080020400900202A
:1049E000600800204209002098080020B48121427C
:1049F0000080214265090020440900209000002029
:104A00007C0B00204809002084020020800B00203D
:104A1000540900205809002064090020D008002013
:104A2000E0080020F8080020D8080020E80800204E
:104A300000090020F00800200000F03F08090020D5
:104A4000180900203009002010090020200900204A
:104A500038090020280900204C0900207804002093
:104A6000880B0020500900206C0600208C0B0020D1
:104A70005C09002060090020A001214200002242C0
:104A8000A0012242FFE707B0BDE8F08F2DE9F04F0B
:104A900087B006460F4614461D46DDE912892246B8
:104AA0002B464046494611F039F922462B46CDE9BE
:104AB0000401DDE9100110F0F1FF42464B46CDE95B
:104AC00000013046394610F0E9FF8246DDE9002357
:104AD00011F024F9CDE90201DDE9042310F086FD8F
:104AE0004B4A03C24A480CC83046394611F016F901
:104AF000824622462B4610F079FD464A03C207B093
:104B0000BDE8F08F2DE9F04F87B080460D46914605
:104B10004FF0000BB9F1010F0BD0B9F1020F0ED01D
:104B2000B9F1030F08D0B9F1040F0BD14FF0140BFA
:104B300009E04FF0140B06E04FF0150B03E04FF0C7
:104B4000140B00E000BF00BF002425E004EB0B00C5
:104B500010F03DFFCDE9000110F0DEFACDE90201D1
:104B60002C480CC8029810F099FFCDE904012848A0
:104B70000CC8049810F07EFC06460F4630463946B5
:104B800010F088F9CDE9040110F0F4FE1FFA80FA64
:104B900025F814A0601C84B2A8F10100A042D5DC65
:104BA000002025F8140007B0BDE8F08F2DE9F04F84
:104BB00089B004460D4616461F462046294610F089
:104BC000ABFA80468946DDE9120110F0A5FA82466B
:104BD0008B463046394610F09FFACDE90601DDE9F3
:104BE000140110F099FACDE90401DDE90401CDE9E1
:104BF00000ABCDE9020140464946DDE90623FFF757
:104C000045FF16A807C8FFF77DFF09B0BDE8F08F84
:104C10007009002068090020FD48FE494860FE48F0
:104C200048607047FB48006940F08000F94908611E
:104C30007047F848C16801F0010008B101207047D1
:104C400001F0040008B10220F9E701F0100008B1FA
:104C50000320F4E70020F2E770B5044600BFFFF739
:104C6000E8FF0546012D00D006E0012000F0C5FC5C
:104C7000601E84B2002CF2D100BF04B9FF25284683
:104C800070BD70B50546002445F6FF70FFF7E4FFE0
:104C90000446C4B9DF48006940F00200DD490861FC
:104CA00008464561006940F04000086145F6FF7024
:104CB000FFF7D2FF0446012C05D0D648006920F04A
:104CC0000200D4490861204670BD70B505460E4605
:104CD000FF20FFF7C1FF04469CB9CE48006940F0B1
:104CE0000100CC49086130B22880FF20FFF7B4FFF3
:104CF0000446012C05D0C748006920F00100C549D1
:104D00000861204670BD0146B1F900007047C349F3
:104D1000098809B2C24A02EBC0025180C149097830
:104D2000BF4A02F83010C049098809B202EBC0023C
:104D30009180BE49098809B2B94A02EBC002D1800C
:104D4000704710B50446FFF767FFB54A12F83410F4
:104D5000B74A1268B74BD018FFF7B7FFB4480068DE
:104D6000801CB3490860FFF757FFAD4A02EBC4024D
:104D7000B2F90210AE4A1268AE4BD018FFF7A5FF89
:104D8000AB480068801CAA490860FFF745FFA44AA9
:104D900002EBC402B2F90410A54A1268A54BD01860
:104DA000FFF793FFA2480068801CA1490860FFF745
:104DB00033FF9B4A02EBC402B2F906109C4A126808
:104DC0009C4BD018FFF781FF10BD70B50025002661
:104DD00000240020964908600968974A8818FFF760
:104DE00092FF054692480068801C91490860294658
:104DF00092A00FF009FE8E4909688F4A8818FFF7C4
:104E000082FF06468A480068801C8949086031464E
:104E100090A00FF0F9FD012D01D1741C01E040F2CA
:104E2000B14495A00FF0F0FD00208149086099A0E1
:104E30000FF0EAFD01209949088014E07C490968D7
:104E40007C4A8818FFF75FFF0546794800680830FC
:104E500077490860294692A00FF0D6FD8F48008858
:104E6000401C8E4908808D480088A042E6DB8DA05A
:104E70000FF0CAFD02206E4908608BA00FF0C4FD40
:104E800001208649088014E069490968694A881840
:104E9000FFF739FF05466648006808306449086036
:104EA00029467FA00FF0B0FD7C480088401C7B495C
:104EB00008807A480088A042E6DB7AA00FF0A4FDC3
:104EC00004205B4908607BA00FF09EFD0120734920
:104ED000088014E056490968564A8818FFF713FFFE
:104EE00005465348006808305149086029466CA0BF
:104EF0000FF08AFD69480088401C684908806748AF
:104F00000088A042E6DB67A00FF07EFD062048493E
:104F100008606BA00FF078FD01206049088014E064
:104F200043490968434A8818FFF7EDFE05464048A3
:104F3000006808303E490860294659A00FF064FD1A
:104F400056480088401C5549088054480088A042B3
:104F5000E6DB54A00FF058FD70BD10B500203449B9
:104F600008600DE0FFF758FE31490968314A02EB4D
:104F70008120FFF786FE2E480068401C2C490860FF
:104F80002B4800680D28EDDBFFF746FE2A48FFF7A7
:104F900078FE10BD10B5FFF73FFE4C48FFF771FEDD
:104FA000FFF73AFE4A48FFF76CFE002020490860F0
:104FB0004849087026E000204749087019E0FFF7CB
:104FC0002BFE464A434B1B7802EB0312424B1B78E5
:104FD000D15C174A12683E4BD018FFF776FE144892
:104FE0000068801C124908603B480078401C3A4920
:104FF0000870394800781028E1DB36480078401CFA
:1050000034490870334800781028D4DB002067E06A
:105010002301674500200240AB89EFCDF00A002054
:1050200008260020E70B0020180A00201C0A002098
:105030004C000020006401080060010854686520ED
:1050400054696D65204861732053617665643A2523
:10505000640D0A00546865204E756D626572206F9C
:1050600066205468652043757272656E74205469B9
:105070006D653A25640D0A007461736B2C7472615E
:10508000636B2C73706565646C2C737065656472FA
:105090002C0D0A007461736B3A0D0A007A09002026
:1050A00025642C000D0A000067616E676C653A0D7F
:1050B0000A00000073706565646C3A0D0A00000018
:1050C0007370656564723A0D0A00000000DC010827
:1050D00000E001081D0000201E000020E0750020F7
:1050E000614908606149087024E000206049087047
:1050F00017E05D4909685F4A8818FFF704FE5E49BA
:105100005A4A127801EB0211594A127888545648CB
:105110000068801C5449086055480078401C544978
:105120000870534800781028E3DB50480078401C92
:105130004E4908704D4800781028D6DB00204A49B7
:105140000860FFF769FD484909684C4A88184C49CE
:105150000978FFF7BAFD44480068801C424908609E
:10516000FFF75AFD40490968444A881845490978BB
:10517000FFF7ABFD3C480068801C3B490860FFF727
:105180004BFD394909683D4A88183F490978FFF7BE
:105190009CFD35480068801C33490860FFF73CFDE2
:1051A00031490968354A881838490978FFF78DFD73
:1051B0002D480068801C2C490860FFF72DFD2A4906
:1051C00009682E4A881832490978FFF77EFD26487B
:1051D0000068801C24490860FFF71EFD2249096809
:1051E000264A88182B490978FFF76FFD1E4800688A
:1051F000801C1D49086010BD10B5FFF70DFD264845
:10520000FFF73FFD002018490860002422E0FFF767
:1052100003FD224A12F81410134A12681E4BD018CC
:10522000FFF753FD10480068801C0F490860FFF726
:10523000F3FC1A4A02EB440251780B4A1268164BEF
:10524000D018FFF742FD08480068801C0649086036
:10525000601CC4B212480078401C8442D7DB10BDE9
:1052600001201049087070474C0000201D000020EC
:105270001E00002000E00108E075002000DC0108AD
:10528000020E0020030E0020090E00200A0E00204E
:10529000231400201F00002000D80108E073002024
:1052A0002100002078090020BD48806940F00C00F2
:1052B000BB498861BB48006820F07040B94908606C
:1052C0000846006840F000400860B748006820F4D5
:1052D0007040B54908600846006840F40040086026
:1052E000AF48806940F00100AD4988610846C06957
:1052F00040F00100C861AD484068AD490840AB4985
:1053000048600846406840F0806048600846406851
:1053100020F4407048600846406840F4807048605F
:1053200042F20F7089038885002008850846008CAA
:1053300008840846008B40F4007008830846008B00
:1053400040F0020008830846008940F0030008810D
:105350000020088288840846008840F00100088008
:1053600070478F48806940F008008D4988618E48F9
:10537000006820F47F008C4908600846006840F40B
:10538000080008608648C06940F002008449C8618E
:105390008648406820F44060844948600846406878
:1053A00040F40060486042F20F708249088000209B
:1053B000091F08807F480C38008840F002007D49B2
:1053C0000C3908807B481438008840F48070794993
:1053D000143908800846008840F0010008807548AC
:1053E0002438008840F003007249243908800020E6
:1053F00070491C3908806F49083908806D482C387D
:10540000008840F001006B492C39088070476448DF
:10541000806940F400606249886142F21070664918
:1054200008804720091F088063482C38008840F016
:10543000010061492C39088070475948C06940F023
:1054400004005749C8610846806940F00800886137
:105450005548006820F07F405349086008460068BE
:1054600040F03B400860081D006820F0FF00091D67
:1054700008600846006840F0BB00086040F2DC505D
:105480004E4908800120091F08804C4814380088C4
:1054900040F60C4108404949143908800846008804
:1054A00040F0600008800846008840F4C040088052
:1054B000081D008840F60C4108404049103908801A
:1054C0000846008840F0600008800846008840F4E4
:1054D000C0400880081F008840F00800091F0880AD
:1054E0000846008840F400600880081D008840F0ED
:1054F0000800091D08800846008840F40060088004
:10550000081D008840F00100091D08800846008839
:1055100040F0100008800846008840F48070088041
:105520000846008840F48050088024482C380088C1
:1055300040F0800021492C3908800846008840F05E
:10554000010008807047024642F210718A4201DD74
:10555000084670474842824201DA4842F9E710465D
:10556000F7E7024682218A4201DD08467047484239
:10557000824201DA4842F9E71046F7E7014600297E
:1055800001DB084670474842FCE70D490D4A127896
:1055900041F822000B490978491C0A4A11707047EA
:1055A0000010024004080140000C014000000140CE
:1055B000FFFCFFF82C0400402C2C01402C0800407C
:1055C000504C0020300C002010B56FF0040000F0AB
:1055D000BAFA2E4800682E49B0FBF1F02D49087048
:1055E0000846007800EB4001C1EBC0104FF6FF7198
:1055F00001EAC0002849088010BD0146254A1278FA
:105600004A434FF0E0235A6100229A611A46126918
:1056100042F001021A6100BF4FF0E022106900F071
:1056200001021AB100F48032002AF5D04FF0E022D6
:10563000126922F001024FF0E0231A6100229A6100
:1056400070470146144A12884A434FF0E0235A61DA
:1056500000229A611A46126942F001021A6100BFE3
:105660004FF0E022106900F001021AB100F480321C
:10567000002AF5D04FF0E022126922F001024FF02B
:10568000E0231A6100229A61704700007800002030
:1056900000127A00400C0020420C0020AD4A0A4063
:1056A0000243AD4B1A6070470146072323EA01020B
:1056B0001202A94B1B1D18684FF6FF031840A74B99
:1056C00018431043A44B1B1D186070472DE9F04789
:1056D0008046894614461D462046E11704EB917129
:1056E000C1F3870AE11704EB91718910A4EB8101E2
:1056F000CFB2042000EBC700C7B22846FFF7D4FFA3
:10570000C5F1040008FA00F60F20284100EA09005C
:10571000064306F00F06202C09DA914801680120A3
:10572000A04001434FF0E020C0F800110BE08C488E
:10573000001D0068A4F1200101228A4010434FF0AF
:10574000E021C1F80401874810F80A0006FA07F1C1
:105750000843C1B2834800F80A10BDE8F08770B56D
:1057600004460B46CE1701EB9676C6F38700CE179C
:1057700001EB9676B610A1EB8606B606350E7A4B8F
:105780009B6943F00103784EB3614FEAB63353F897
:1057900020300F26AE40B343744E46F820303346D7
:1057A00053F8203004FA05F61E43704B43F820608E
:1057B0006F4B1B6801268E4033436D4E336002F001
:1057C000010343B16A4B0C331B6801268E403343FF
:1057D000674E0C36336002F0020343B1644B08336A
:1057E0001E6801238B401E43614B08331E6070BD51
:1057F00000B500205C490861C860142048610020A1
:105800008861C8610846006840F0010008600846E9
:10581000406858490840544948600846006856495D
:105820000840514908600846006820F4802008605C
:105830000846406820F4FE0048600020886000218F
:105840006420FFF72BFF00BD30BF704700B5424812
:105850000830006840F004003F49083108604248C1
:10586000C06940F080504049C8614448406840F4F5
:105870008070424948600846006840F004000860B3
:105880000846006840F002000860FFF7DDFF00BD39
:105890003248001D3049091D08607047014649061D
:1058A000314A926942F001022F4B9A612F4A083A1D
:1058B000526822F0E0622D4B083B5A601A4652684B
:1058C0000A435A60704730B504460025FFF790FF41
:1058D0002548006840F480302349086000BF224812
:1058E0000068400C0028FAD04FF480601E494860E0
:1058F000A01EC4B20846406840EA8440486008469A
:10590000406840F4803048601D48006840F0320034
:105910001B4908601448006840F080701249086014
:1059200000BF11480068400E0028FAD00E484068B9
:1059300040F002000C49486005E00B484068C0F3A5
:10594000870505F00305022DF7D130BD72B670470B
:1059500062B6704780FFFF1F08ED00E00000FA0507
:1059600000E100E000E400E0001002400800014017
:10597000000401400000FFF8FFFFF6FE0070004049
:1059800000200240014600BF704700BF324A128823
:1059900002F04002002AF9D0C2B22F4B1B1D1A8020
:1059A00070472DE9F05F05460E46300110F034FCDB
:1059B00081462A4905FB01F010F02EFC824649463B
:1059C00010F030FB0746384610F0EEFB84B220465C
:1059D00010F022FC8346394610F032FD82464FF02B
:1059E000834110F061FC814610F0DEFB80464FF6EB
:1059F000FF7000EA041404EB080084B218488069C0
:105A000040F00400164988610846806940F48040EF
:105A100088611448006820F47F60124908600846D5
:105A2000006840F40B6008600D48C06840F4804096
:105A30000B49C8600846C06820F48040C86006482A
:105A400008300480001D008842F20C01084302491E
:105A50000C310880BDE8F09F0038014040420F0043
:105A600000100240040801400948804709480047E7
:105A7000FEE7FEE7FEE7FEE7FEE7FEE7FEE7FEE7FE
:105A8000FEE7FEE704480549054A064B704700005B
:105A9000673A000831010008D0800020D08A002039
:105AA000D0820020D082002031490143314A116068
:105AB000704770B5002100230F22C47804B32D4C29
:105AC000246804F4E064C4F5E064210AC1F104032D
:105AD000CA40447804FA03F1847814402143090150
